:100000000C9463000C948B000C948B000C948B006C
:100010000C948B000C948B000C948B000C948B0034
:100020000C948B000C948B000C948B000C948B0024
:100030000C948B000C948B000C948B000C948B0014
:100040000C94A1050C948B000C948B000C948B00E9
:100050000C948B000C948B000C948B000C948B00F4
:100060000C94EB050C948B0000000000240027008A
:100070002A0000000000250028002B0000000000DE
:1000800023002600290004040404040404040202DA
:100090000202020203030303030301020408102007
:1000A0004080010204081020010204081020000012
:1000B0000008000201000003040700000000000027
:1000C00000000A077D0B11241FBECFEFD8E0DEBF72
:1000D000CDBF23E0AEEAB1E001C01D92A930B20766
:1000E000E1F711E0A0E0B1E0EEEBFBE102C005902A
:1000F0000D92AE3AB107D9F710E0C2E6D0E004C0E5
:100100002197FE010E94DA0BC136D107C9F70E9480
:1001100095070C94D20D0C94000096E0899FD001B5
:100120001124AC57BD4F90967C936E935F9791E0EE
:1001300091969C939197E091F102F091F202909147
:10014000F002992339F0309751F0811108C0809165
:10015000A0020994309719F05C968C91FACF08951B
:10016000CF92DF92EF92FF920F931F9396E0899FB9
:10017000F0011124EC57FD4F11A2278D30A1213041
:10018000310551F178F02230310509F451C02330A6
:10019000310509F452C01F910F91FF90EF90DF904D
:1001A000CF9008956623B9F361E070E00E948D005E
:1001B0002FB7F8948091740290917502A091760205
:1001C000B09177022FBF8093DC029093DD02A09361
:1001D000DE02B093DF02DFCF9FB7F894C0907402C5
:1001E000D0907502E0907602F09077029FBF009168
:1001F000DC021091DD022091DE023091DF02C01A94
:10020000D10AE20AF30A0091EE021091EF0230E007
:1002100020E00C151D052E053F0550F462E070E04E
:100220001F910F91FF90EF90DF90CF900C948D0075
:100230006111B1CF63E070E0F3CF70E060E0F0CF28
:10024000089508950895AF92BF92CF92DF92EF92F2
:10025000FF920F931F93CF93DF936C017B018B0170
:10026000040F151FEB015E01AE18BF08C017D107C0
:1002700059F06991D601ED91FC910190F081E02D4A
:10028000C6010995892B79F7C501DF91CF911F919F
:100290000F91FF90EF90DF90CF90BF90AF900895B7
:1002A000833081F028F4813099F08230A9F00895EC
:1002B0008730A9F08830C9F08430B1F48091800093
:1002C0008F7D03C0809180008F7780938000089598
:1002D00084B58F7784BD089584B58F7DFBCF8091E1
:1002E000B0008F778093B00008958091B0008F7D2B
:1002F000F9CFCF93DF93282F30E0F901E255FF4F7C
:100300008491F901E656FF4FD491F901EA57FF4F66
:10031000C491CC23A1F081110E945001EC2FF0E098
:10032000EE0FFF1FE458FF4FA591B491EC91ED2320
:1003300081E090E009F480E0DF91CF91089580E0C2
:1003400090E0FACF862F0C9479011F93CF93DF931F
:10035000282F30E0F901E255FF4F8491F901E6566C
:10036000FF4FD491F901EA57FF4FC491CC23A9F074
:10037000162F81110E945001EC2FF0E0EE0FFF1FAD
:10038000EE58FF4FA591B4918FB7F894EC911111ED
:1003900008C0D095DE23DC938FBFDF91CF911F91F2
:1003A0000895DE2BF8CF862F642F0C94A501CF93F0
:1003B000DF9390E0FC01E656FF4F24918A579F4F50
:1003C000FC0184918823C9F090E0880F991FFC01FB
:1003D000E859FF4FA591B491FC01EE58FF4FC5912C
:1003E000D49161110DC09FB7F8948C912095822310
:1003F0008C938881282328839FBFDF91CF91089514
:10040000623051F49FB7F8943C91822F80958323FA
:100410008C93E8812E2BEFCF8FB7F894EC912E2B95
:100420002C938FBFEACF862F642F0C94D7013FB750
:10043000F8948091610290916202A0916302B09160
:10044000640226B5A89B05C02F3F19F00196A11D97
:10045000B11D3FBFBA2FA92F982F8827BC01CD010E
:10046000620F711D811D911D42E0660F771F881F6D
:10047000991F4A95D1F708958F929F92AF92BF929C
:10048000CF92DF92EF92FF924B015C010E94170224
:100490006B017C010E9417026C197D098E099F096E
:1004A000683E734081059105A8F321E0821A910806
:1004B000A108B10888EEC80E83E0D81EE11CF11C2B
:1004C00081149104A104B10429F7FF90EF90DF900B
:1004D000CF90BF90AF909F908F9008952091EF01A3
:1004E000260F3327331F21323105ECF420913802D7
:1004F000FC0190E080E0243069F082E00895A09152
:10050000EF012191AC0141535E4FA40FB52FB11DF6
:100510002C930196861798F38091EF01680F6093F2
:10052000EF0180E0089581E008951092380281E0A3
:10053000809337021092120261E082E10E94A501CD
:1005400061E083E10E94A501E9EBF0E080818E7F0C
:10055000808380818D7F808388E48093B80085E4E8
:100560008093BC000895CF93DF9391E09093CE01E8
:100570008823B9F0C091B800D091BA008091BC0036
:100580008A7B8093BC0060E082E10E94A50160E06C
:1005900083E10E94A5010E949502D093BA00C09306
:1005A000B800DF91CF9108950895E0916C02809199
:1005B0006B02E81730F4F0E0E255FE4F808190E0E6
:1005C00008958FEF9FEF089590916C0280916B02D8
:1005D0002FEF3FEF981748F4E92FF0E0E255FE4F78
:1005E000208130E09F5F90936C02C9010895809153
:1005F0006B0290916C02891B990B0895CF92DF9248
:10060000EF92FF920F931F93CF93DF937C01CB0167
:100610008A0120913E02222389F0EB016B01C40E76
:10062000D51ECC15DD0569F06991D701ED91FC91DE
:100630000190F081E02DC7010995F3CF642F0E944E
:100640006E02C801DF91CF911F910F91FF90EF9043
:10065000DF90CF900895CF93DF931F92CDB7DEB791
:10066000698320913E022223F9F020916902203211
:1006700058F021E030E0FC013383228390E080E0F9
:100680000F90DF91CF91089580916A02E82FF0E0FA
:10069000E15CFD4F998190838F5F80936A02809324
:1006A000690281E090E0ECCF61E0CE0101960E940A
:1006B0006E02F7CFCF92DF92EF92FF920F931F93CC
:1006C000CF93DF93FC01C48121E020933E02C093CD
:1006D0005F0210926A02109269028385682B88E794
:1006E00092E00E942B03D0916902D13208F092C0AF
:1006F0000E9417026B017C0180913802811165C054
:1007000082E08093380281E0809337028FEF8093FC
:10071000360210923502D0933402AFE3B2E0E4E146
:10072000F2E080E0D81385C010921302809113028A
:10073000CC0FC82BC093130280911202813009F0B4
:100740007CC0109212020E9417026B017C01809102
:1007500013028093BB0080913A0290913B02A091DA
:100760003C02B0913D02892B8A2B8B2B99F00E9481
:10077000170200913A0210913B0220913C02309105
:100780003D026C197D098E099F0906171707280776
:100790003907E0F18091BC0083FDD9CF85EC8093CF
:1007A000BC000E9417026B017C01809138028230EC
:1007B00009F445C0809136028F3F61F18091360285
:1007C000803241F18091360225C080913A029091A9
:1007D0003B02A0913C02B0913D02892B8A2B8B2BCE
:1007E00009F48ACF0E94170200913A0210913B024D
:1007F00020913C0230913D026C197D098E099F09C0
:10080000061717072807390708F076CF80913902B5
:100810000E94B30210926A021092690210923E0284
:10082000DF91CF911F910F91FF90EF90DF90CF90CC
:1008300008959D9191938F5F75CF85EEB0CF809194
:100840003A0290913B02A0913C02B0913D02892B6B
:100850008A2B8B2B09F4A9CF0E94170200913A0230
:1008600010913B0220913C0230913D026C197D09B0
:100870008E099F09061717072807390708F095CF33
:10088000C5CF90E080E0089561E08AE00E94A50174
:1008900060E08BE00E94A50160ED77E080E090E0F1
:1008A0000C943C020F931F93CF938C01C62F0E9490
:1008B0005A036C2F6460C8010E945A036C2F6B7F2F
:1008C000C8010E945A0383EC90E00197F1F7CF91A1
:1008D0001F910F9108950F931F93CF93DF938C0176
:1008E000D62FC42F607F642B0E94520480E1D89FD2
:1008F000B00111246C2BC801DF91CF911F910F9192
:100900000C94520440E061E089EF92E00E946B0495
:100910008BE39FE10197F1F70895CF93DF93CDB774
:10092000DEB728970FB6F894DEBF0FBECDBF98E0B4
:10093000E9E1F1E0DE01119601900D929A95E1F75F
:1009400090910103961710F46FEF690F262F30E096
:10095000220F331F41E050E04C0F5D1F240F351F65
:10096000F9016081680F606840E089EF92E02896A5
:100970000FB6F894DEBF0FBECDBFDF91CF910C94C0
:100980006B0441E00E946B0481E090E008958F9237
:100990009F92AF92BF920F931F93CF93DF93CDB7E8
:1009A000DEB7A1970FB6F894DEBF0FBECDBF19A278
:1009B000423008F44AE08E010F5D1F4F842E912CC7
:1009C000B12CA12CA50194010E94B80BE62FB9010E
:1009D000CA01EA3044F5E05DD801EE938D01232B86
:1009E000242B252B79F790E080E0109769F0FD012A
:1009F00001900020E9F73197AF014A1B5B0BBD0165
:100A000089EF92E00E942301A1960FB6F894DEBF11
:100A10000FBECDBFDF91CF911F910F91BF90AF90CF
:100A20009F908F900895E95CD7CFFC010190002042
:100A3000E9F73197AF01481B590BBC0189EF92E0F0
:100A40000C942301FC0180819181009711F00C949A
:100A50007C0C0895EF92FF920F931F93CF93DF9337
:100A6000EC017B018A0188819981009729F02A8114
:100A70003B812417350788F4B8016F5F7F4F0E94D0
:100A8000050D009791F0998388831B830A832C813D
:100A90003D81232B11F4FC0110821D830C83B701CF
:100AA000888199810E94CB0D0CC088819981009723
:100AB00011F00E947C0C198218821D821C821B82FC
:100AC0001A82CE01DF91CF911F910F91FF90EF908D
:100AD000089585ED8093BC0080913A0290913B028D
:100AE000A0913C02B0913D020796A11DB11D23E0EB
:100AF000B695A795979587952A95D1F72091BC0033
:100B000024FD03C010923802089540913A0250919A
:100B10003B0260913C0270913D02452B462B472BD6
:100B200069F30097A105B10541F025E32A95F1F796
:100B300000000197A109B109E1CF809139020C941D
:100B4000B3021F920F920FB60F9211242F933F936F
:100B50008F939F93AF93BF9380917402909175028E
:100B6000A0917602B09177023091600223E0230FCA
:100B70002D3758F50196A11DB11D20936002809379
:100B8000740290937502A0937602B09377028091DD
:100B9000610290916202A0916302B0916402019699
:100BA000A11DB11D8093610290936202A093630224
:100BB000B0936402BF91AF919F918F913F912F911C
:100BC0000F900FBE0F901F90189526E8230F0296E6
:100BD000A11DB11DD2CF1F920F920FB60F921124FB
:100BE0002F933F934F935F936F937F938F939F9335
:100BF000AF93BF93EF93FF938091B900887F8036C6
:100C000009F44AC0F0F5883209F4A7C018F580311C
:100C100009F49BC0B8F4882309F4F9C0883009F4BA
:100C200094C0FF91EF91BF91AF919F918F917F9170
:100C30006F915F914F913F912F910F900FBE0F9049
:100C40001F901895883109F488C0803251F780933D
:100C5000360214C0803409F49DC040F48033B9F3E7
:100C60008833F9F68093360285ECB0C0803509F4FC
:100C700085C0883509F496C0883499F60E946905C4
:100C8000D0CF883909F48CC038F5883729F050F472
:100C9000883611F0803729F683E08093380210926D
:100CA000110257C0883809F47BC0803919F08038A8
:100CB00009F0B7CF80911102803208F071C0E09145
:100CC000110281E08E0F809311028091BB00F0E051
:100CD000EF50FE4F80833DC0803B39F0E0F4803A16
:100CE00009F479C0883A09F09CCF84E080933802F7
:100CF0001092F0011092EF01E0916702F09168020A
:100D000009958091EF0181110FC081E08093EF017F
:100D10001092CF0109C0803C09F4A6CF883C09F4A9
:100D2000A3CF883B09F07DCFE091F00181E08E0FE9
:100D30008093F001F0E0E153FE4F80818093BB008F
:100D40009091F0018091EF0129C08091130280936E
:100D5000BB0085EC8093BC0064CF909135028091FC
:100D60003402981758F5E091350281E08E0F809398
:100D70003502F0E0EC5EFD4F8081E9CFE091350275
:100D800081E08E0F809335028091BB00F0E0EC5E35
:100D9000FD4F808390913502809134029817C8F2FC
:100DA00085E8D8CFE091350281E08E0F809335023F
:100DB0008091BB00F0E0EC5EFD4F808380913702B4
:100DC00081115CCF81E08093120284EA8093BC00A1
:100DD0001092380226CF85EC8093BC001092380226
:100DE00080911102803230F4E0911102F0E0EF5076
:100DF000FE4F10826091110270E0E0916502F09167
:100E0000660281EF91E00995109211020ACF1092CB
:100E1000360234CF10927B0210927A0288EE93E071
:100E2000A0E0B0E080937C0290937D02A0937E02CC
:100E3000B0937F0285E291E09093790280937802EB
:100E40001092FC021092FB0281E491E09093FA026E
:100E50008093F9028FE38093FD0284E18093020383
:100E600084E080930303109204031092F402109222
:100E7000F3021092F6021092F5021092F80210920C
:100E8000F70244E050E069E471E083EF92E00E94F1
:100E90002A051092860210928A02109289021092FC
:100EA0008B0287E391E09093850280938402E0EACD
:100EB000F2E01082148213821582369682E0EC3DB5
:100EC000F807B9F783E091E09093E7028093E60298
:100ED00080E091E09093E9028093E80284E08093BF
:100EE000EA0283E08093EB0287E091E09093E502D1
:100EF0008093E4028AE090E09093ED028093EC020C
:100F000084EF91E09093EF028093EE021092F20250
:100F10001092F1021092E0021092E1021092E202AD
:100F20001092E3021092F0020895CF93DF93CDB7B1
:100F3000DEB76C970FB6F894DEBF0FBECDBF7894C6
:100F400084B5826084BD84B5816084BD85B58260CE
:100F500085BD85B5816085BD80916E00816080937F
:100F60006E001092810080918100826080938100E8
:100F700080918100816080938100809180008160F8
:100F8000809380008091B10084608093B100809153
:100F9000B00081608093B00080917A00846080937B
:100FA0007A0080917A00826080937A0080917A0042
:100FB000816080937A0080917A00806880937A00C3
:100FC0001092C10061E08AE00E94D70161E08BE0ED
:100FD0000E94D70161E08CE00E94D70110926C0260
:100FE00010926B0210926A02109269020E9495029E
:100FF00080E291E0909368028093670281E291E041
:1010000090936602809365021092FE028091030322
:10101000823018F098E09093FE028093010362E31F
:1010200070E080E090E00E943C026091040389EF50
:1010300092E00E945A0368EE73E080E090E00E9424
:101040003C0260E389EF92E00E9452040BE416E454
:10105000C8010197F1F760E389EF92E00E94520422
:10106000C8010197F1F760E389EF92E00E94520412
:1010700083E592E00197F1F760E289EF92E00E9448
:1010800052046091FE02606240E089EF92E00E94AB
:101090006B0484E08093FF0240E06CE089EF92E013
:1010A0000E946B040E94820482E08093000340E06F
:1010B00066E089EF92E00E946B0440E062E089EF15
:1010C00092E00E946B048BE39FE10197F1F788E0C7
:1010D0008093040360E089EF92E00E945A030E942B
:1010E00082040E94440464E170E080E090E00E9489
:1010F0003C02812C912C540183943E0123E1620E29
:10110000711C6E0139E1C30ED11C0E9482048EE471
:1011100091E00E94150564E670E080E090E00E9496
:101120003C0281E08093F0028FB7F8944091740202
:101130005091750260917602709177028FBF809115
:10114000E0029091E102A091E202B091E302481B1B
:10115000590B6A0B7B0B8091EC029091ED02B0E091
:10116000A0E084179507A607B70708F015C110E09F
:101170008091EA02181760F4E091E602F091E7022C
:10118000E10FF11D62E080810E94D7011F5FF0CF67
:10119000312C8091EB02381608F064C0E32CF12C5E
:1011A000E091E802F091E902EE0DFF1D61E080811F
:1011B0000E94D701E091E802F091E902EE0DFF1DD7
:1011C00060E080810E94A501D501C401032C04C008
:1011D000880F991FAA1FBB1F0A94D2F79C8F8B8F71
:1011E0002C0140945094212C8091EA02281618F585
:1011F000022D10E0E091E602F091E702E00FF11F0E
:1012000080810E9479010C5F1F4F000F111FF801B0
:10121000EC57FD4F892B51F4808191812B8D3C8DB2
:10122000822B932B918380832394DECF80819181C5
:1012300084219521F7CFE091E802F091E902EE0DCB
:10124000FF1D61E080810E94A5018091E8029091DC
:10125000E902E80EF91E60E0F70180810E94D701E3
:10126000339497CF04E812E080EC92E07801F70124
:10127000278D30A1232B31F4148E2FEF3FEF368FC3
:10128000258F11A236E0E30EF11C8E159F0579F72C
:10129000512C8091EA02581608F053C0412C252C9D
:1012A000312C220C331CC10184579D4F1C0120910D
:1012B000EB02421608F043C0F10160817181042CF9
:1012C00002C0769567950A94E2F7529E9001112428
:1012D000240D311DE4E8F2E080E0458D568D2417A1
:1012E000350709F408C28F5F36968A30B1F760FF80
:1012F00024C0E4E8F2E090E080E0448D411118C0A1
:10130000E091E402F091E502E20FF31F408156E024
:10131000589FF001599FF00D1124EC57FD4F448F59
:10132000368F258F10A2178E61E00E94B00005C095
:10133000019636968A30910501F74394B8CF5394BD
:10134000A8CF80E0F80191A19111892F0A5F1F4F6A
:10135000E016F106B9F79FB7F894409174025091E6
:10136000750260917602709177029FBF4093E00210
:101370005093E1026093E2027093E302882361F0EC
:101380008091A502882341F08091A3029091A4024C
:101390005090A002019719F01092F002512C8E018A
:1013A0000F5F1F4F7801F8011182108213821282A1
:1013B0001582148250E040E069E971E0C8010E94A2
:1013C0002A050A5F1F4F0615170569F7552009F40E
:1013D00087C0F3E25F1297C01092730210927202FC
:1013E0000E9444040E9482048091720290917302D0
:1013F000049709F075C080917002909171021816DF
:1014000019060CF042C180916E0290916F02019614
:1014100090936F0280936E0210927102109270028C
:1014200010927302109272020E94820461E080E0C6
:101430000E948D0481E691E00E94150562E080E043
:101440000E948D0480E791E00E94150562E083E12F
:101450000E948D0480916E0290916F0223E0222EF3
:10146000312C281A390A032C000C440855084AE08C
:10147000C201B10157FE0EC041E06DE289EF92E07A
:101480000E946B0466277727CB01621973098409D0
:1014900095094AE00E94C7040E94440480916E02AC
:1014A00090916F020397E1F410926F0210926E0216
:1014B0000E94820461E080E00E948D048AE991E04C
:1014C0000E94150561E08CE00E94A50160E177E2D1
:1014D00080E090E00E943C0260E08CE00E94A50168
:1014E000CE010D960E942205CE0107960E9422058C
:1014F000C7010E94220580E090E0892B09F405CE07
:101500000E94000002CE809172029091730220919D
:10151000F7023091F8028217930730F4E091F3025A
:10152000F091F402309779F510926D02EDE6F2E059
:101530004081451186C01C8A1B8A1E8A1D8A188E0E
:101540001F8A598E1A8EF60101900020E9F7319713
:101550008F010C191D09B8016F5F7F4F90E080E08B
:101560000E94050D009791F09C8B8B8B1E8B0D8B31
:101570002F89388D232B09F443C0188F0F8BB601A8
:101580000E94CB0D0DC0E80FF91FD2CF8B899C892B
:101590000097C9F51C8A1B8A188E1F8A1E8A1D8A0D
:1015A0000091720210917302F6E0F09F2001F19F0A
:1015B000500C11244E0C5F1CF20180819181009728
:1015C00039F16B897C896115710501F14281538183
:1015D0002F89388D42175307C8F00E94CB0D8F8991
:1015E000988DF20195838483188E1F8AC3010E940F
:1015F00022050F5F1F4F1093730200937202F4CE07
:10160000FC011082BACF0E947C0CC4CF0E947C0CDB
:1016100026E0209FF001219FF00D1124EE0DFF1D0B
:101620008B899C89918380838D899E899383828312
:101630008F89988D958384831C8A1B8A1E8A1D8AB4
:10164000D3CF8217930730F4E091F302F091F402C4
:101650003097C1F410926D02EDE6F2E0208125157D
:1016600009F4C2CE20917002309171022F5F3F4F7A
:1016700030937102209370020196909373028093CD
:101680007202B2CEE80FF91FE9CF892B09F006CF1D
:1016900010927302109272020E94820461E080E054
:1016A0000E948D0484E891E00E94150561E08CE0C1
:1016B0000E94A50164E670E080E090E00E943C0298
:1016C00060E08CE00E94A50160E08AE00E94A50134
:1016D00061E08BE00E94A50168E873E180E090E0A2
:1016E0000E943C0261E08AE00E94A50160E08BE07C
:1016F0000E94A501D3CE617018CE83EF92E00C94C6
:1017000022052F923F924F925F926F927F928F921B
:101710009F92AF92BF92CF92DF92EF92FF920F9380
:101720001F93CF93DF93CDB7DEB7CA1BDB0B0FB68A
:10173000F894DEBF0FBECDBF09942A883988488847
:101740005F846E847D848C849B84AA84B984C884DD
:10175000DF80EE80FD800C811B81AA81B981CE0FD4
:10176000D11D0FB6F894DEBF0FBECDBFED010895B9
:10177000A1E21A2EAA1BBB1BFD010DC0AA1FBB1F95
:10178000EE1FFF1FA217B307E407F50720F0A21B07
:10179000B30BE40BF50B661F771F881F991F1A9474
:1017A00069F760957095809590959B01AC01BD019E
:1017B000CF010895EE0FFF1F0590F491E02D0994DD
:1017C0000F931F93CF93DF938230910510F482E043
:1017D00090E0E0910703F091080330E020E0B0E0F2
:1017E000A0E0309799F42115310509F44AC0281B6F
:1017F000390B24303105D8F58A819B81611571053B
:1018000089F1FB0193838283FE0111C040815181E4
:101810000281138148175907E0F04817590799F4D6
:10182000109761F012960C93129713961C933296B0
:10183000CF01DF91CF911F910F910895009307037E
:1018400010930803F4CF2115310551F042175307C7
:1018500038F0A901DB019A01BD01DF01F801C1CF18
:10186000EF01F9CF9093080380930703CDCFFE01DA
:10187000E20FF31F8193919322503109398328831A
:10188000D7CF2091050330910603232B41F42091FB
:101890001501309116013093060320930503209122
:1018A0001301309114012115310541F42DB73EB7D4
:1018B0004091170150911801241B350BE09105034D
:1018C000F0910603E217F307A0F42E1B3F0B281735
:1018D000390778F0AC014E5F5F4F2417350748F0A9
:1018E0004E0F5F1F5093060340930503819391931E
:1018F0009FCFF0E0E0E09CCFCF93DF930097E9F03B
:10190000FC01329713821282A0910703B091080361
:10191000ED0130E020E01097A1F420813181820FA9
:10192000931F20910503309106032817390709F00A
:1019300061C0F0930603E0930503DF91CF91089512
:10194000EA01CE17DF07E8F54A815B819E01411568
:101950005105B1F7E901FB83EA8349915991C40F1D
:10196000D51FEC17FD0761F4808191810296840FE9
:10197000951FE90199838883828193819B838A8360
:10198000F0E0E0E012968D919C9113970097B9F5E5
:101990002D913C911197CD010296820F931F2091BA
:1019A0000503309106032817390739F6309751F5AA
:1019B0001092080310920703B0930603A093050347
:1019C000BCCFD383C28340815181840F951FC81738
:1019D000D90761F44E5F5F4F88819981480F591F85
:1019E000518340838A819B819383828321153105B2
:1019F00009F0B0CFF0930803E09307039ECFFD01F9
:101A0000DC01C0CF13821282D7CFB0E0A0E0EBE0C0
:101A1000FDE00C94830B8C01009751F4CB010E94E4
:101A2000E00B8C01C801CDB7DEB7E0E10C949F0B51
:101A3000FC01E60FF71F9C0122503109E217F30762
:101A400008F49DC0D901CD91DC911197C617D70735
:101A500098F0C530D10530F3CE010497861797076B
:101A600008F3C61BD70B2297C193D1936D937C9338
:101A7000CF010E947C0CD6CF5B01AC1ABD0A4C0191
:101A80008C0E9D1EA0910703B0910803512C412C90
:101A9000F12CE12C109731F580910503909106030C
:101AA0008815990509F05CC04616570608F058C01D
:101AB0008091130190911401009741F48DB79EB766
:101AC0004091170150911801841B950BE817F907F5
:101AD00008F055C0F0930603E0930503F901718304
:101AE0006083A0CF8D919C91119712966C90129764
:101AF00013967C901397A815B90559F56C0142E02F
:101B0000C40ED11CCA14DB0420F1AC014A195B09D4
:101B1000DA011296159780F06282738251834083B6
:101B2000D9016D937C93E114F10471F0D701139600
:101B3000FC93EE93129776CF22968C0F9D1FF9019E
:101B400091838083F301EFCFF0930803E0930703C1
:101B500069CF4816590608F42C017D01D3019ACFAC
:101B6000CB010E94E00B7C01009749F0AE01B80167
:101B70000E94C20DC8010E947C0C870153CF10E067
:101B800000E050CFFB01DC0102C001900D924150FA
:101B90005040D8F70895FB01DC0101900D92002020
:101BA000E1F7089510E0C2E6D0E004C0FE010E9413
:0E1BB000DA0B2196C336D107C9F7F894FFCFA0
:101BBE000304050607080931323334353637383910
:101BCE002A30230000090380000000400014005456
:101BDE0000000000002B03FE024104D402F702E4D1
:101BEE0002D502000000001302D301A20100000082
:101BFE0000C1042301410422013132333400204557
:101C0E006E74726572206C6520636F6465203A2075
:101C1E00002020434F4445204552524F4E4521004F
:101C2E0020204553534149532052455354414E545D
:101C3E00533A20002020202020204249454E564570
:101C4E004E554521202020202000202020414343B6
:0E1C5E00455320524546555345202121210073
:00000001FF
